{
  "contractName": "MarketPlace",
  "abi": [
    {
      "inputs": [],
      "payable": false,
      "stateMutability": "nonpayable",
      "type": "constructor"
    },
    {
      "anonymous": false,
      "inputs": [],
      "name": "MissionComplete",
      "type": "event"
    },
    {
      "constant": true,
      "inputs": [],
      "name": "owner",
      "outputs": [
        {
          "internalType": "address",
          "name": "",
          "type": "address"
        }
      ],
      "payable": false,
      "stateMutability": "view",
      "type": "function"
    },
    {
      "constant": false,
      "inputs": [],
      "name": "Shipped",
      "outputs": [],
      "payable": false,
      "stateMutability": "nonpayable",
      "type": "function"
    },
    {
      "constant": false,
      "inputs": [],
      "name": "Delivered",
      "outputs": [],
      "payable": false,
      "stateMutability": "nonpayable",
      "type": "function"
    },
    {
      "constant": true,
      "inputs": [],
      "name": "getStatus",
      "outputs": [
        {
          "internalType": "enum MarketPlace.ShippingStatus",
          "name": "",
          "type": "uint8"
        }
      ],
      "payable": false,
      "stateMutability": "view",
      "type": "function"
    },
    {
      "constant": false,
      "inputs": [],
      "name": "Status",
      "outputs": [
        {
          "internalType": "enum MarketPlace.ShippingStatus",
          "name": "",
          "type": "uint8"
        }
      ],
      "payable": true,
      "stateMutability": "payable",
      "type": "function"
    },
    {
      "constant": false,
      "inputs": [],
      "name": "cell",
      "outputs": [
        {
          "internalType": "uint256",
          "name": "",
          "type": "uint256"
        }
      ],
      "payable": true,
      "stateMutability": "payable",
      "type": "function"
    }
  ],
  "bytecode": "0x608060405234801561001057600080fd5b5060008054610100600160a81b03191633610100021760ff1916815561035b90819061003c90396000f3fe6080604052600436106100555760003560e01c806345f09ce91461005a5780634e69d56014610086578063779822f71461009b5780637e59301e146100b25780638da5cb5b146100c75780639b723e15146100f8575b600080fd5b610062610112565b6040518082600281111561007257fe5b60ff16815260200191505060405180910390f35b34801561009257600080fd5b50610062610175565b3480156100a757600080fd5b506100b06101c4565b005b3480156100be57600080fd5b506100b0610248565b3480156100d357600080fd5b506100dc6102a5565b604080516001600160a01b039092168252519081900360200190f35b6101006102b9565b60408051918252519081900360200190f35b6001546000906001600160a01b0316331461015e5760405162461bcd60e51b81526004018080602001828103825260368152602001806102be6036913960400191505060405180910390fd5b3460011461016b57600080fd5b5060005460ff1690565b6000805461010090046001600160a01b0316331461016b5760405162461bcd60e51b81526004018080602001828103825260338152602001806102f46033913960400191505060405180910390fd5b60005461010090046001600160a01b031633146102125760405162461bcd60e51b81526004018080602001828103825260338152602001806102f46033913960400191505060405180910390fd5b6000805460ff191660021781556040517f36b3427b9db85e3915108cfe803971ea1ab2908152d7f72b55bf3a001c67a8659190a1565b60005461010090046001600160a01b031633146102965760405162461bcd60e51b81526004018080602001828103825260338152602001806102f46033913960400191505060405180910390fd5b6000805460ff19166001179055565b60005461010090046001600160a01b031681565b479056fe546869732066756e6374696f6e206973207265737472696374656420746f2074686520636f6e7472616374277320637573746f6d6572546869732066756e6374696f6e206973207265737472696374656420746f2074686520636f6e74726163742773206f776e6572a265627a7a72315820ff310200250f7a9e3ed092f784edb618eb82c16eb440630bf0f5b3605808771364736f6c63430005100032",
  "source": "// SPDX-License-Identifier: MIT\npragma solidity >=0.4.22 <0.9.0;\n\ncontract MarketPlace{ \n\n    enum ShippingStatus{ PENDING, SHIPPED, DELIVERED }\n    ShippingStatus status;\n    address public owner;\n    address customer;\n    event MissionComplete();\n    \n    /*\n        Initialisation du contrat entre le owner et le customer \n        avec le status shipped en PENDING.\n    */\n    constructor() public {\n        owner = msg.sender;\n        //customer = _customer;\n        status = ShippingStatus.PENDING;\n    }\n\n\n    /*\n      Change l'état du shipping en shipped\n    */\n    function Shipped() public {\n        require(msg.sender == owner,\n                \"This function is restricted to the contract's owner\");\n        status = ShippingStatus.SHIPPED;\n    }\n\n    /*\n      On change l'état en delivered tout en vérifiant qu'il s'agisse bien\n      de l'owner, ensuite on emit l'event MissionComplete();\n    */\n    function Delivered() public {\n        require(msg.sender == owner,\n                \"This function is restricted to the contract's owner\");\n        status = ShippingStatus.DELIVERED;\n        emit MissionComplete();\n    }\n    \n    /*\n\n    */\n    function getStatus() public view returns(ShippingStatus){\n        require(msg.sender == owner, \n                \"This function is restricted to the contract's owner\");  \n        return status;\n    }\n\n    /*\n\n    */\n    function Status() public payable returns(ShippingStatus){\n        require(msg.sender == customer, \"This function is restricted to the contract's customer\");\n        require(msg.value == 1 ** -5 ether);\n        return status;\n    }\n\n    /**\n     * Fonction test pour savoir si on arrive a avoir le balance\n     */\n    function cell() public payable returns (uint) {\n        return address(this).balance;\n    }\n\n    // function transfer(address payable _to, uint _amount) public {\n    //     (bool success, ) = _to.call{value: _amount}(\"\");\n    //     require(success, \"Failed to send Ether\");\n    // }\n\n}\n\n\n\n\n\n\n\n\n\n",
  "sourcePath": "/home/geist/Documents/Ynov/Eval/contracts/MarketPlace.sol",
  "compiler": {
    "name": "solc",
    "version": "0.5.16+commit.9c3226ce.Emscripten.clang"
  },
  "schemaVersion": "3.4.10",
  "updatedAt": "2022-10-28T14:51:46.823Z",
  "devdoc": {
    "methods": {}
  },
  "userdoc": {
    "methods": {
      "cell()": {
        "notice": "Fonction test pour savoir si on arrive a avoir le balance"
      }
    }
  }
}