{
  "contractName": "MartketPlace",
  "abi": [
    {
      "inputs": [
        {
          "internalType": "address",
          "name": "_customer",
          "type": "address"
        }
      ],
      "payable": false,
      "stateMutability": "nonpayable",
      "type": "constructor"
    },
    {
      "anonymous": false,
      "inputs": [],
      "name": "MissionComplete",
      "type": "event"
    },
    {
      "constant": false,
      "inputs": [],
      "name": "Shipped",
      "outputs": [],
      "payable": false,
      "stateMutability": "nonpayable",
      "type": "function"
    },
    {
      "constant": false,
      "inputs": [],
      "name": "Delivered",
      "outputs": [],
      "payable": false,
      "stateMutability": "nonpayable",
      "type": "function"
    },
    {
      "constant": true,
      "inputs": [],
      "name": "getStatus",
      "outputs": [
        {
          "internalType": "enum MartketPlace.ShippingStatus",
          "name": "",
          "type": "uint8"
        }
      ],
      "payable": false,
      "stateMutability": "view",
      "type": "function"
    },
    {
      "constant": true,
      "inputs": [],
      "name": "Status",
      "outputs": [
        {
          "internalType": "enum MartketPlace.ShippingStatus",
          "name": "",
          "type": "uint8"
        }
      ],
      "payable": false,
      "stateMutability": "view",
      "type": "function"
    }
  ],
  "bytecode": "0x608060405234801561001057600080fd5b506040516102133803806102138339818101604052602081101561003357600080fd5b505160008054610100600160a81b031916336101000217808255600180546001600160a01b0319166001600160a01b038516178155829160ff1916908202179055505061018e806100856000396000f3fe608060405234801561001057600080fd5b506004361061004c5760003560e01c806345f09ce9146100515780634e69d5601461007d578063779822f7146100855780637e59301e1461008f575b600080fd5b610059610097565b6040518082600281111561006957fe5b60ff16815260200191505060405180910390f35b6100596100bf565b61008d6100dc565b005b61008d61012e565b6000805461010090046001600160a01b03163314156100b557600080fd5b5060005460ff1690565b6000805461010090046001600160a01b031633146100b557600080fd5b60005461010090046001600160a01b031633146100f857600080fd5b6000805460ff191660021781556040517f36b3427b9db85e3915108cfe803971ea1ab2908152d7f72b55bf3a001c67a8659190a1565b60005461010090046001600160a01b0316331461014a57600080fd5b6000805460ff1916600117905556fea265627a7a72315820147429b9f58c82c6a907b357be92f00ec75be2724b8c4d6702afbb78827a56e164736f6c63430005100032",
  "source": "pragma solidity >=0.4.22 <0.9.0;\n\ncontract MartketPlace{\n    enum ShippingStatus{ PENDING, SHIPPED, DELIVERED }\n    ShippingStatus status;\n    address owner;\n    address customer;\n\n    event MissionComplete();\n    \n    constructor(address _customer) public {\n        owner = msg.sender;\n        customer = _customer;\n        status = ShippingStatus.PENDING;\n    }\n\n    function Shipped() public {\n        require(msg.sender == owner);\n        status = ShippingStatus.SHIPPED;\n    }\n\n    function Delivered() public {\n        require(msg.sender == owner);\n        status = ShippingStatus.DELIVERED;\n        emit MissionComplete();\n    }\n\n    function getStatus() public view returns(ShippingStatus){\n        require(msg.sender == owner);  \n        return status;\n    }\n\n    function Status() public view returns(ShippingStatus){\n        require(msg.sender != owner);\n        return status;\n    }\n\n}\n\n\n\n\n\n\n\n\n\n",
  "sourcePath": "/home/geist/Documents/Ynov/Eval/contracts/MarketPlace.sol",
  "compiler": {
    "name": "solc",
    "version": "0.5.16+commit.9c3226ce.Emscripten.clang"
  },
  "schemaVersion": "3.4.10",
  "updatedAt": "2022-10-28T12:54:59.278Z",
  "devdoc": {
    "methods": {}
  },
  "userdoc": {
    "methods": {}
  }
}